{
  "contractName": "LyrifyTokenFactory",
  "abi": [
    {
      "constant": true,
      "inputs": [
        {
          "name": "",
          "type": "uint256"
        }
      ],
      "name": "lyrifyTokens",
      "outputs": [
        {
          "name": "ownerName",
          "type": "string"
        },
        {
          "name": "songName",
          "type": "string"
        },
        {
          "name": "lyrics",
          "type": "string"
        }
      ],
      "payable": false,
      "stateMutability": "view",
      "type": "function"
    },
    {
      "constant": true,
      "inputs": [
        {
          "name": "",
          "type": "uint256"
        }
      ],
      "name": "lyrifyTokensToOwner",
      "outputs": [
        {
          "name": "",
          "type": "address"
        }
      ],
      "payable": false,
      "stateMutability": "view",
      "type": "function"
    },
    {
      "constant": false,
      "inputs": [],
      "name": "renounceOwnership",
      "outputs": [],
      "payable": false,
      "stateMutability": "nonpayable",
      "type": "function"
    },
    {
      "constant": true,
      "inputs": [],
      "name": "owner",
      "outputs": [
        {
          "name": "",
          "type": "address"
        }
      ],
      "payable": false,
      "stateMutability": "view",
      "type": "function"
    },
    {
      "constant": false,
      "inputs": [
        {
          "name": "newOwner",
          "type": "address"
        }
      ],
      "name": "transferOwnership",
      "outputs": [],
      "payable": false,
      "stateMutability": "nonpayable",
      "type": "function"
    },
    {
      "anonymous": false,
      "inputs": [
        {
          "indexed": false,
          "name": "id",
          "type": "uint256"
        },
        {
          "indexed": false,
          "name": "ownerName",
          "type": "string"
        },
        {
          "indexed": false,
          "name": "songName",
          "type": "string"
        },
        {
          "indexed": false,
          "name": "lyrics",
          "type": "string"
        }
      ],
      "name": "NewLyrifyToken",
      "type": "event"
    },
    {
      "anonymous": false,
      "inputs": [
        {
          "indexed": true,
          "name": "previousOwner",
          "type": "address"
        }
      ],
      "name": "OwnershipRenounced",
      "type": "event"
    },
    {
      "anonymous": false,
      "inputs": [
        {
          "indexed": true,
          "name": "previousOwner",
          "type": "address"
        },
        {
          "indexed": true,
          "name": "newOwner",
          "type": "address"
        }
      ],
      "name": "OwnershipTransferred",
      "type": "event"
    },
    {
      "constant": false,
      "inputs": [
        {
          "name": "_fee",
          "type": "uint256"
        }
      ],
      "name": "setRegistrationFee",
      "outputs": [],
      "payable": false,
      "stateMutability": "nonpayable",
      "type": "function"
    },
    {
      "constant": false,
      "inputs": [
        {
          "name": "_ownerName",
          "type": "string"
        },
        {
          "name": "_songName",
          "type": "string"
        },
        {
          "name": "_lyrics",
          "type": "string"
        }
      ],
      "name": "registerToken",
      "outputs": [],
      "payable": true,
      "stateMutability": "payable",
      "type": "function"
    },
    {
      "constant": true,
      "inputs": [
        {
          "name": "_owner",
          "type": "address"
        }
      ],
      "name": "getLyrifyTokensByOwner",
      "outputs": [
        {
          "name": "",
          "type": "uint256[]"
        }
      ],
      "payable": false,
      "stateMutability": "view",
      "type": "function"
    }
  ],
  "bytecode": "0x6080604052660e35fa931a0000600355336000806101000a81548173ffffffffffffffffffffffffffffffffffffffff021916908373ffffffffffffffffffffffffffffffffffffffff160217905550610edf8061005e6000396000f30060806040526004361061008e576000357c0100000000000000000000000000000000000000000000000000000000900463ffffffff168063032a81c9146100935780634c82bada14610211578063715018a61461027e5780638da5cb5b146102955780639f9f2659146102ec578063c320c727146103d4578063dddafef814610401578063f2fde38b14610499575b600080fd5b34801561009f57600080fd5b506100be600480360381019080803590602001909291905050506104dc565b60405180806020018060200180602001848103845287818151815260200191508051906020019080838360005b838110156101065780820151818401526020810190506100eb565b50505050905090810190601f1680156101335780820380516001836020036101000a031916815260200191505b50848103835286818151815260200191508051906020019080838360005b8381101561016c578082015181840152602081019050610151565b50505050905090810190601f1680156101995780820380516001836020036101000a031916815260200191505b50848103825285818151815260200191508051906020019080838360005b838110156101d25780820151818401526020810190506101b7565b50505050905090810190601f1680156101ff5780820380516001836020036101000a031916815260200191505b50965050505050505060405180910390f35b34801561021d57600080fd5b5061023c600480360381019080803590602001909291905050506106dd565b604051808273ffffffffffffffffffffffffffffffffffffffff1673ffffffffffffffffffffffffffffffffffffffff16815260200191505060405180910390f35b34801561028a57600080fd5b50610293610710565b005b3480156102a157600080fd5b506102aa610812565b604051808273ffffffffffffffffffffffffffffffffffffffff1673ffffffffffffffffffffffffffffffffffffffff16815260200191505060405180910390f35b6103d2600480360381019080803590602001908201803590602001908080601f0160208091040260200160405190810160405280939291908181526020018383808284378201915050505050509192919290803590602001908201803590602001908080601f0160208091040260200160405190810160405280939291908181526020018383808284378201915050505050509192919290803590602001908201803590602001908080601f0160208091040260200160405190810160405280939291908181526020018383808284378201915050505050509192919290505050610837565b005b3480156103e057600080fd5b506103ff60048036038101908080359060200190929190505050610857565b005b34801561040d57600080fd5b50610442600480360381019080803573ffffffffffffffffffffffffffffffffffffffff1690602001909291905050506108bc565b6040518080602001828103825283818151815260200191508051906020019060200280838360005b8381101561048557808201518184015260208101905061046a565b505050509050019250505060405180910390f35b3480156104a557600080fd5b506104da600480360381019080803573ffffffffffffffffffffffffffffffffffffffff1690602001909291905050506109ee565b005b6001818154811015156104eb57fe5b9060005260206000209060030201600091509050806000018054600181600116156101000203166002900480601f0160208091040260200160405190810160405280929190818152602001828054600181600116156101000203166002900480156105975780601f1061056c57610100808354040283529160200191610597565b820191906000526020600020905b81548152906001019060200180831161057a57829003601f168201915b505050505090806001018054600181600116156101000203166002900480601f0160208091040260200160405190810160405280929190818152602001828054600181600116156101000203166002900480156106355780601f1061060a57610100808354040283529160200191610635565b820191906000526020600020905b81548152906001019060200180831161061857829003601f168201915b505050505090806002018054600181600116156101000203166002900480601f0160208091040260200160405190810160405280929190818152602001828054600181600116156101000203166002900480156106d35780601f106106a8576101008083540402835291602001916106d3565b820191906000526020600020905b8154815290600101906020018083116106b657829003601f168201915b5050505050905083565b60046020528060005260406000206000915054906101000a900473ffffffffffffffffffffffffffffffffffffffff1681565b6000809054906101000a900473ffffffffffffffffffffffffffffffffffffffff1673ffffffffffffffffffffffffffffffffffffffff163373ffffffffffffffffffffffffffffffffffffffff1614151561076b57600080fd5b6000809054906101000a900473ffffffffffffffffffffffffffffffffffffffff1673ffffffffffffffffffffffffffffffffffffffff167ff8df31144d9c2f0f6b59d69b8b98abd5459d07f2742c4df920b25aae33c6482060405160405180910390a260008060006101000a81548173ffffffffffffffffffffffffffffffffffffffff021916908373ffffffffffffffffffffffffffffffffffffffff160217905550565b6000809054906101000a900473ffffffffffffffffffffffffffffffffffffffff1681565b6003543414151561084757600080fd5b610852838383610b43565b505050565b6000809054906101000a900473ffffffffffffffffffffffffffffffffffffffff1673ffffffffffffffffffffffffffffffffffffffff163373ffffffffffffffffffffffffffffffffffffffff161415156108b257600080fd5b8060038190555050565b606080600080600260008673ffffffffffffffffffffffffffffffffffffffff1673ffffffffffffffffffffffffffffffffffffffff168152602001908152602001600020546040519080825280602002602001820160405280156109305781602001602082028038833980820191505090505b50925060009150600090505b6001805490508110156109e3578473ffffffffffffffffffffffffffffffffffffffff166004600083815260200190815260200160002060009054906101000a900473ffffffffffffffffffffffffffffffffffffffff1673ffffffffffffffffffffffffffffffffffffffff1614156109d6578083838151811015156109bf57fe5b906020019060200201818152505081806001019250505b808060010191505061093c565b829350505050919050565b6000809054906101000a900473ffffffffffffffffffffffffffffffffffffffff1673ffffffffffffffffffffffffffffffffffffffff163373ffffffffffffffffffffffffffffffffffffffff16141515610a4957600080fd5b600073ffffffffffffffffffffffffffffffffffffffff168173ffffffffffffffffffffffffffffffffffffffff1614151515610a8557600080fd5b8073ffffffffffffffffffffffffffffffffffffffff166000809054906101000a900473ffffffffffffffffffffffffffffffffffffffff1673ffffffffffffffffffffffffffffffffffffffff167f8be0079c531659141344cd1fd0a4f28419497f9722a3daafe3b4186f6b6457e060405160405180910390a3806000806101000a81548173ffffffffffffffffffffffffffffffffffffffff021916908373ffffffffffffffffffffffffffffffffffffffff16021790555050565b6000600160606040519081016040528086815260200185815260200184815250908060018154018082558091505090600182039060005260206000209060030201600090919290919091506000820151816000019080519060200190610baa929190610e0e565b506020820151816001019080519060200190610bc7929190610e0e565b506040820151816002019080519060200190610be4929190610e0e565b5050509050336004600083815260200190815260200160002060006101000a81548173ffffffffffffffffffffffffffffffffffffffff021916908373ffffffffffffffffffffffffffffffffffffffff160217905550600260003373ffffffffffffffffffffffffffffffffffffffff1673ffffffffffffffffffffffffffffffffffffffff168152602001908152602001600020600081548092919060010191905055507fae5439b334bf17003475aa6990f4c87eeba3d25b368ed3ac996858fadf94e0318185858560405180858152602001806020018060200180602001848103845287818151815260200191508051906020019080838360005b83811015610cfd578082015181840152602081019050610ce2565b50505050905090810190601f168015610d2a5780820380516001836020036101000a031916815260200191505b50848103835286818151815260200191508051906020019080838360005b83811015610d63578082015181840152602081019050610d48565b50505050905090810190601f168015610d905780820380516001836020036101000a031916815260200191505b50848103825285818151815260200191508051906020019080838360005b83811015610dc9578082015181840152602081019050610dae565b50505050905090810190601f168015610df65780820380516001836020036101000a031916815260200191505b5097505050505050505060405180910390a150505050565b828054600181600116156101000203166002900490600052602060002090601f016020900481019282601f10610e4f57805160ff1916838001178555610e7d565b82800160010185558215610e7d579182015b82811115610e7c578251825591602001919060010190610e61565b5b509050610e8a9190610e8e565b5090565b610eb091905b80821115610eac576000816000905550600101610e94565b5090565b905600a165627a7a72305820dcf78a0372ae481a534e51de54cabfb36363ec9f9145a40feb9641dd524ffdda0029",
  "source": "pragma solidity ^0.4.19;\n\nimport \"./Ownable.sol\";\n\n// @todo: figure out the correct fields for the copyright struct\ncontract LyrifyTokenFactory is Ownable {\n    event NewLyrifyToken(uint id, string ownerName, string songName, string lyrics);\n\n    struct LyrifyToken {\n        string ownerName;\n        string songName;\n        string lyrics; // @todo text is cheap, ipfs in future? \n        // ? do we need a timestamp?\n    }\n\n    LyrifyToken[] public lyrifyTokens;\n    // helper attribute\n    mapping(address => uint) ownerLyrifyTokenCount; // @todo limit uint to uint16?\n\n    uint registrationFee = 0.004 ether; // 3 bux at the time of this contract\n    mapping (uint => address) public lyrifyTokensToOwner;\n\n    function setRegistrationFee(uint _fee) external onlyOwner {\n        registrationFee = _fee;\n    }\n\n    function _createToken(string _ownerName, string _songName, string _lyrics) internal {\n        uint id = lyrifyTokens.push(LyrifyToken(_ownerName, _songName, _lyrics));\n        lyrifyTokensToOwner[id] = msg.sender;\n        ownerLyrifyTokenCount[msg.sender]++;\n        emit NewLyrifyToken(id, _ownerName, _songName, _lyrics);\n    }\n\n    /// Anyone can call this function. Should this be updated so only the \n    /// contract creator can create this?? (to pay in USD/other sources, for example)\n    function registerToken(string _ownerName, string _songName, string _lyrics) public payable {\n        require(msg.value == registrationFee);\n        _createToken(_ownerName, _songName, _lyrics);\n    }\n\n    // Helper functions\n    function getLyrifyTokensByOwner(address _owner) external view returns (uint[]) {\n        uint[] memory result = new uint[](ownerLyrifyTokenCount[_owner]);\n        uint counter = 0;\n        for (uint i = 0; i < lyrifyTokens.length; i++) {\n            if (lyrifyTokensToOwner[i] == _owner) {\n                result[counter] = i;\n                counter++;\n            }\n        }\n        return result;\n    }\n\n    // function getLyrifyTokenCount(address _owner) external view returns (uint[]) {\n    //     return lyrifyTokensToOwner[_owner].length;\n    // }\n}\n",
  "sourcePath": "/Users/kyleyasumiishi/Projects/spuds/kyle/michelle/contracts/LyrifyTokenFactory.sol",
  "compiler": {
    "name": "solc",
    "version": "0.4.23+commit.124ca40d.Emscripten.clang"
  },
  "schemaVersion": "2.0.0",
  "updatedAt": "2018-05-17T19:11:02.053Z"
}