{
  "contractName": "LyrifyTokenOwnership",
  "abi": [
    {
      "constant": true,
      "inputs": [
        {
          "name": "",
          "type": "uint256"
        }
      ],
      "name": "lyrifyTokens",
      "outputs": [
        {
          "name": "email",
          "type": "string"
        },
        {
          "name": "ownerName",
          "type": "string"
        },
        {
          "name": "songName",
          "type": "string"
        },
        {
          "name": "lyrics",
          "type": "string"
        }
      ],
      "payable": false,
      "stateMutability": "view",
      "type": "function"
    },
    {
      "constant": true,
      "inputs": [
        {
          "name": "",
          "type": "uint256"
        }
      ],
      "name": "lyrifyTokensToOwner",
      "outputs": [
        {
          "name": "",
          "type": "address"
        }
      ],
      "payable": false,
      "stateMutability": "view",
      "type": "function"
    },
    {
      "constant": false,
      "inputs": [],
      "name": "renounceOwnership",
      "outputs": [],
      "payable": false,
      "stateMutability": "nonpayable",
      "type": "function"
    },
    {
      "constant": true,
      "inputs": [],
      "name": "owner",
      "outputs": [
        {
          "name": "",
          "type": "address"
        }
      ],
      "payable": false,
      "stateMutability": "view",
      "type": "function"
    },
    {
      "constant": false,
      "inputs": [
        {
          "name": "_email",
          "type": "string"
        },
        {
          "name": "_ownerName",
          "type": "string"
        },
        {
          "name": "_songName",
          "type": "string"
        },
        {
          "name": "_lyrics",
          "type": "string"
        }
      ],
      "name": "registerToken",
      "outputs": [],
      "payable": true,
      "stateMutability": "payable",
      "type": "function"
    },
    {
      "constant": false,
      "inputs": [
        {
          "name": "_fee",
          "type": "uint256"
        }
      ],
      "name": "setRegistrationFee",
      "outputs": [],
      "payable": false,
      "stateMutability": "nonpayable",
      "type": "function"
    },
    {
      "constant": true,
      "inputs": [
        {
          "name": "_owner",
          "type": "address"
        }
      ],
      "name": "getLyrifyTokensByOwner",
      "outputs": [
        {
          "name": "",
          "type": "uint256[]"
        }
      ],
      "payable": false,
      "stateMutability": "view",
      "type": "function"
    },
    {
      "constant": false,
      "inputs": [
        {
          "name": "newOwner",
          "type": "address"
        }
      ],
      "name": "transferOwnership",
      "outputs": [],
      "payable": false,
      "stateMutability": "nonpayable",
      "type": "function"
    },
    {
      "anonymous": false,
      "inputs": [
        {
          "indexed": true,
          "name": "_from",
          "type": "address"
        },
        {
          "indexed": true,
          "name": "_to",
          "type": "address"
        },
        {
          "indexed": false,
          "name": "_tokenId",
          "type": "uint256"
        }
      ],
      "name": "Transfer",
      "type": "event"
    },
    {
      "anonymous": false,
      "inputs": [
        {
          "indexed": true,
          "name": "_owner",
          "type": "address"
        },
        {
          "indexed": true,
          "name": "_approved",
          "type": "address"
        },
        {
          "indexed": false,
          "name": "_tokenId",
          "type": "uint256"
        }
      ],
      "name": "Approval",
      "type": "event"
    },
    {
      "anonymous": false,
      "inputs": [
        {
          "indexed": false,
          "name": "id",
          "type": "uint256"
        },
        {
          "indexed": false,
          "name": "email",
          "type": "string"
        },
        {
          "indexed": false,
          "name": "ownerName",
          "type": "string"
        },
        {
          "indexed": false,
          "name": "songName",
          "type": "string"
        },
        {
          "indexed": false,
          "name": "lyrics",
          "type": "string"
        }
      ],
      "name": "NewLyrifyToken",
      "type": "event"
    },
    {
      "anonymous": false,
      "inputs": [
        {
          "indexed": true,
          "name": "previousOwner",
          "type": "address"
        }
      ],
      "name": "OwnershipRenounced",
      "type": "event"
    },
    {
      "anonymous": false,
      "inputs": [
        {
          "indexed": true,
          "name": "previousOwner",
          "type": "address"
        },
        {
          "indexed": true,
          "name": "newOwner",
          "type": "address"
        }
      ],
      "name": "OwnershipTransferred",
      "type": "event"
    },
    {
      "constant": true,
      "inputs": [
        {
          "name": "_owner",
          "type": "address"
        }
      ],
      "name": "balanceOf",
      "outputs": [
        {
          "name": "_balance",
          "type": "uint256"
        }
      ],
      "payable": false,
      "stateMutability": "view",
      "type": "function"
    },
    {
      "constant": true,
      "inputs": [
        {
          "name": "_tokenId",
          "type": "uint256"
        }
      ],
      "name": "ownerOf",
      "outputs": [
        {
          "name": "_owner",
          "type": "address"
        }
      ],
      "payable": false,
      "stateMutability": "view",
      "type": "function"
    },
    {
      "constant": false,
      "inputs": [
        {
          "name": "_to",
          "type": "address"
        },
        {
          "name": "_tokenId",
          "type": "uint256"
        }
      ],
      "name": "transfer",
      "outputs": [],
      "payable": false,
      "stateMutability": "nonpayable",
      "type": "function"
    },
    {
      "constant": false,
      "inputs": [
        {
          "name": "_to",
          "type": "address"
        },
        {
          "name": "_tokenId",
          "type": "uint256"
        }
      ],
      "name": "approve",
      "outputs": [],
      "payable": false,
      "stateMutability": "nonpayable",
      "type": "function"
    },
    {
      "constant": false,
      "inputs": [
        {
          "name": "_tokenId",
          "type": "uint256"
        }
      ],
      "name": "takeOwnership",
      "outputs": [],
      "payable": false,
      "stateMutability": "nonpayable",
      "type": "function"
    }
  ],
  "bytecode": "0x6080604052660e35fa931a0000600355336000806101000a81548173ffffffffffffffffffffffffffffffffffffffff021916908373ffffffffffffffffffffffffffffffffffffffff1602179055506115ba8061005e6000396000f3006080604052600436106100c5576000357c0100000000000000000000000000000000000000000000000000000000900463ffffffff168063032a81c9146100ca578063095ea7b3146102b45780634c82bada146103015780636352211e1461036e57806370a08231146103db578063715018a6146104325780638da5cb5b146104495780639881917c146104a0578063a9059cbb146105ce578063b2e6ceeb1461061b578063c320c72714610648578063dddafef814610675578063f2fde38b1461070d575b600080fd5b3480156100d657600080fd5b506100f560048036038101908080359060200190929190505050610750565b6040518080602001806020018060200180602001858103855289818151815260200191508051906020019080838360005b83811015610141578082015181840152602081019050610126565b50505050905090810190601f16801561016e5780820380516001836020036101000a031916815260200191505b50858103845288818151815260200191508051906020019080838360005b838110156101a757808201518184015260208101905061018c565b50505050905090810190601f1680156101d45780820380516001836020036101000a031916815260200191505b50858103835287818151815260200191508051906020019080838360005b8381101561020d5780820151818401526020810190506101f2565b50505050905090810190601f16801561023a5780820380516001836020036101000a031916815260200191505b50858103825286818151815260200191508051906020019080838360005b83811015610273578082015181840152602081019050610258565b50505050905090810190601f1680156102a05780820380516001836020036101000a031916815260200191505b509850505050505050505060405180910390f35b3480156102c057600080fd5b506102ff600480360381019080803573ffffffffffffffffffffffffffffffffffffffff169060200190929190803590602001909291905050506109ef565b005b34801561030d57600080fd5b5061032c60048036038101908080359060200190929190505050610aaa565b604051808273ffffffffffffffffffffffffffffffffffffffff1673ffffffffffffffffffffffffffffffffffffffff16815260200191505060405180910390f35b34801561037a57600080fd5b5061039960048036038101908080359060200190929190505050610add565b604051808273ffffffffffffffffffffffffffffffffffffffff1673ffffffffffffffffffffffffffffffffffffffff16815260200191505060405180910390f35b3480156103e757600080fd5b5061041c600480360381019080803573ffffffffffffffffffffffffffffffffffffffff169060200190929190505050610b1a565b6040518082815260200191505060405180910390f35b34801561043e57600080fd5b50610447610b63565b005b34801561045557600080fd5b5061045e610c65565b604051808273ffffffffffffffffffffffffffffffffffffffff1673ffffffffffffffffffffffffffffffffffffffff16815260200191505060405180910390f35b6105cc600480360381019080803590602001908201803590602001908080601f0160208091040260200160405190810160405280939291908181526020018383808284378201915050505050509192919290803590602001908201803590602001908080601f0160208091040260200160405190810160405280939291908181526020018383808284378201915050505050509192919290803590602001908201803590602001908080601f0160208091040260200160405190810160405280939291908181526020018383808284378201915050505050509192919290803590602001908201803590602001908080601f0160208091040260200160405190810160405280939291908181526020018383808284378201915050505050509192919290505050610c8a565b005b3480156105da57600080fd5b50610619600480360381019080803573ffffffffffffffffffffffffffffffffffffffff16906020019092919080359060200190929190505050610cac565b005b34801561062757600080fd5b5061064660048036038101908080359060200190929190505050610cbb565b005b34801561065457600080fd5b5061067360048036038101908080359060200190929190505050610d44565b005b34801561068157600080fd5b506106b6600480360381019080803573ffffffffffffffffffffffffffffffffffffffff169060200190929190505050610da9565b6040518080602001828103825283818151815260200191508051906020019060200280838360005b838110156106f95780820151818401526020810190506106de565b505050509050019250505060405180910390f35b34801561071957600080fd5b5061074e600480360381019080803573ffffffffffffffffffffffffffffffffffffffff169060200190929190505050610edb565b005b60018181548110151561075f57fe5b9060005260206000209060040201600091509050806000018054600181600116156101000203166002900480601f01602080910402602001604051908101604052809291908181526020018280546001816001161561010002031660029004801561080b5780601f106107e05761010080835404028352916020019161080b565b820191906000526020600020905b8154815290600101906020018083116107ee57829003601f168201915b505050505090806001018054600181600116156101000203166002900480601f0160208091040260200160405190810160405280929190818152602001828054600181600116156101000203166002900480156108a95780601f1061087e576101008083540402835291602001916108a9565b820191906000526020600020905b81548152906001019060200180831161088c57829003601f168201915b505050505090806002018054600181600116156101000203166002900480601f0160208091040260200160405190810160405280929190818152602001828054600181600116156101000203166002900480156109475780601f1061091c57610100808354040283529160200191610947565b820191906000526020600020905b81548152906001019060200180831161092a57829003601f168201915b505050505090806003018054600181600116156101000203166002900480601f0160208091040260200160405190810160405280929190818152602001828054600181600116156101000203166002900480156109e55780601f106109ba576101008083540402835291602001916109e5565b820191906000526020600020905b8154815290600101906020018083116109c857829003601f168201915b5050505050905084565b816005600083815260200190815260200160002060006101000a81548173ffffffffffffffffffffffffffffffffffffffff021916908373ffffffffffffffffffffffffffffffffffffffff1602179055508173ffffffffffffffffffffffffffffffffffffffff163373ffffffffffffffffffffffffffffffffffffffff167f8c5be1e5ebec7d5bd14f71427d1e84f3dd0314c0f7b2291e5b200ac8c7c3b925836040518082815260200191505060405180910390a35050565b60046020528060005260406000206000915054906101000a900473ffffffffffffffffffffffffffffffffffffffff1681565b60006004600083815260200190815260200160002060009054906101000a900473ffffffffffffffffffffffffffffffffffffffff169050919050565b6000600260008373ffffffffffffffffffffffffffffffffffffffff1673ffffffffffffffffffffffffffffffffffffffff168152602001908152602001600020549050919050565b6000809054906101000a900473ffffffffffffffffffffffffffffffffffffffff1673ffffffffffffffffffffffffffffffffffffffff163373ffffffffffffffffffffffffffffffffffffffff16141515610bbe57600080fd5b6000809054906101000a900473ffffffffffffffffffffffffffffffffffffffff1673ffffffffffffffffffffffffffffffffffffffff167ff8df31144d9c2f0f6b59d69b8b98abd5459d07f2742c4df920b25aae33c6482060405160405180910390a260008060006101000a81548173ffffffffffffffffffffffffffffffffffffffff021916908373ffffffffffffffffffffffffffffffffffffffff160217905550565b6000809054906101000a900473ffffffffffffffffffffffffffffffffffffffff1681565b60035434141515610c9a57600080fd5b610ca684848484611030565b50505050565b610cb733838361138e565b5050565b60003373ffffffffffffffffffffffffffffffffffffffff166005600084815260200190815260200160002060009054906101000a900473ffffffffffffffffffffffffffffffffffffffff1673ffffffffffffffffffffffffffffffffffffffff16141515610d2a57600080fd5b610d3382610add565b9050610d4081338461138e565b5050565b6000809054906101000a900473ffffffffffffffffffffffffffffffffffffffff1673ffffffffffffffffffffffffffffffffffffffff163373ffffffffffffffffffffffffffffffffffffffff16141515610d9f57600080fd5b8060038190555050565b606080600080600260008673ffffffffffffffffffffffffffffffffffffffff1673ffffffffffffffffffffffffffffffffffffffff16815260200190815260200160002054604051908082528060200260200182016040528015610e1d5781602001602082028038833980820191505090505b50925060009150600090505b600180549050811015610ed0578473ffffffffffffffffffffffffffffffffffffffff166004600083815260200190815260200160002060009054906101000a900473ffffffffffffffffffffffffffffffffffffffff1673ffffffffffffffffffffffffffffffffffffffff161415610ec357808383815181101515610eac57fe5b906020019060200201818152505081806001019250505b8080600101915050610e29565b829350505050919050565b6000809054906101000a900473ffffffffffffffffffffffffffffffffffffffff1673ffffffffffffffffffffffffffffffffffffffff163373ffffffffffffffffffffffffffffffffffffffff16141515610f3657600080fd5b600073ffffffffffffffffffffffffffffffffffffffff168173ffffffffffffffffffffffffffffffffffffffff1614151515610f7257600080fd5b8073ffffffffffffffffffffffffffffffffffffffff166000809054906101000a900473ffffffffffffffffffffffffffffffffffffffff1673ffffffffffffffffffffffffffffffffffffffff167f8be0079c531659141344cd1fd0a4f28419497f9722a3daafe3b4186f6b6457e060405160405180910390a3806000806101000a81548173ffffffffffffffffffffffffffffffffffffffff021916908373ffffffffffffffffffffffffffffffffffffffff16021790555050565b60006001806080604051908101604052808881526020018781526020018681526020018581525090806001815401808255809150509060018203906000526020600020906004020160009091929091909150600082015181600001908051906020019061109e9291906114e9565b5060208201518160010190805190602001906110bb9291906114e9565b5060408201518160020190805190602001906110d89291906114e9565b5060608201518160030190805190602001906110f59291906114e9565b505050039050336004600083815260200190815260200160002060006101000a81548173ffffffffffffffffffffffffffffffffffffffff021916908373ffffffffffffffffffffffffffffffffffffffff160217905550600260003373ffffffffffffffffffffffffffffffffffffffff1673ffffffffffffffffffffffffffffffffffffffff168152602001908152602001600020600081548092919060010191905055507f06a0e9530637f51093c11eba07c9233cbc086dc6f93bed4661edd1206af768e681868686866040518086815260200180602001806020018060200180602001858103855289818151815260200191508051906020019080838360005b838110156112145780820151818401526020810190506111f9565b50505050905090810190601f1680156112415780820380516001836020036101000a031916815260200191505b50858103845288818151815260200191508051906020019080838360005b8381101561127a57808201518184015260208101905061125f565b50505050905090810190601f1680156112a75780820380516001836020036101000a031916815260200191505b50858103835287818151815260200191508051906020019080838360005b838110156112e05780820151818401526020810190506112c5565b50505050905090810190601f16801561130d5780820380516001836020036101000a031916815260200191505b50858103825286818151815260200191508051906020019080838360005b8381101561134657808201518184015260208101905061132b565b50505050905090810190601f1680156113735780820380516001836020036101000a031916815260200191505b50995050505050505050505060405180910390a15050505050565b600260008373ffffffffffffffffffffffffffffffffffffffff1673ffffffffffffffffffffffffffffffffffffffff16815260200190815260200160002060008154809291906001019190505550600260003373ffffffffffffffffffffffffffffffffffffffff1673ffffffffffffffffffffffffffffffffffffffff1681526020019081526020016000206000815480929190600190039190505550816004600083815260200190815260200160002060006101000a81548173ffffffffffffffffffffffffffffffffffffffff021916908373ffffffffffffffffffffffffffffffffffffffff1602179055508173ffffffffffffffffffffffffffffffffffffffff168373ffffffffffffffffffffffffffffffffffffffff167fddf252ad1be2c89b69c2b068fc378daa952ba7f163c4a11628f55a4df523b3ef836040518082815260200191505060405180910390a3505050565b828054600181600116156101000203166002900490600052602060002090601f016020900481019282601f1061152a57805160ff1916838001178555611558565b82800160010185558215611558579182015b8281111561155757825182559160200191906001019061153c565b5b5090506115659190611569565b5090565b61158b91905b8082111561158757600081600090555060010161156f565b5090565b905600a165627a7a72305820f9d9ece3076db1218f389839c1a879cc339bc2820a84ae1490e56fb40635e5bf0029",
  "source": "pragma solidity ^0.4.19;\n\nimport \"./ERC721.sol\";\nimport \"./LyrifyTokenFactory.sol\";\n\n// @todo: figure out the correct fields for the copyright struct\ncontract LyrifyTokenOwnership is LyrifyTokenFactory, ERC721 {\n\n    mapping (uint => address) lyrifyTokenApprovals;\n\n    function balanceOf(address _owner) public view returns (uint256 _balance) {\n        return ownerLyrifyTokenCount[_owner];\n    }\n\n    function ownerOf(uint256 _tokenId) public view returns (address _owner) {\n        return lyrifyTokensToOwner[_tokenId];\n    }\n\n    function _transfer(address _from, address _to, uint256 _tokenId) private {\n        ownerLyrifyTokenCount[_to]++; // use safemath!! = ownerLyrifyTokenCount[_to].add(1);\n        ownerLyrifyTokenCount[msg.sender]--; // use safemath!! = ownerLyrifyTokenCount[msg.sender].sub(0);\n        lyrifyTokensToOwner[_tokenId] = _to;\n        emit Transfer(_from, _to, _tokenId);\n    }\n\n//  add owner only of token (not contract) check ... \n    function transfer(address _to, uint256 _tokenId) public { //public owner(_tokenId) {\n        _transfer(msg.sender, _to, _tokenId);\n    }\n\n    function approve(address _to, uint256 _tokenId) public { // public owner(_tokenId) {\n        lyrifyTokenApprovals[_tokenId] = _to;\n        emit Approval(msg.sender, _to, _tokenId);\n    }\n\n    function takeOwnership(uint256 _tokenId) public {\n        require(lyrifyTokenApprovals[_tokenId] == msg.sender);\n        address owner = ownerOf(_tokenId);\n        _transfer(owner, msg.sender, _tokenId);\n    }\n}\n",
  "sourcePath": "/Users/kyleyasumiishi/Projects/spuds/kyle/contracts/LyrifyTokenOwnership.sol",
  "compiler": {
    "name": "solc",
    "version": "0.4.23+commit.124ca40d.Emscripten.clang"
  },
  "schemaVersion": "2.0.0",
  "updatedAt": "2018-05-21T18:26:41.253Z"
}